:020000040000fa
:080000000002040000000000f2
:020000040000fa
:04000800aa06000044
:020000040000fa
:04000c00aa06000040
:020000040000fa
:04001000aa0600003c
:020000040000fa
:04001400aa06000038
:020000040000fa
:04001800aa06000034
:020000040000fa
:04001c00aa06000030
:020000040000fa
:04002000aa0600002c
:020000040000fa
:04002400aa06000028
:020000040000fa
:04002800aa06000024
:020000040000fa
:04002c00aa06000020
:020000040000fa
:04003000aa0600001c
:020000040000fa
:04003400aa06000018
:020000040000fa
:04003800aa06000014
:020000040000fa
:04003c00aa06000010
:020000040000fa
:04004000aa0600000c
:020000040000fa
:04004400460600006c
:020000040000fa
:04004800aa06000004
:020000040000fa
:04004c00aa06000000
:020000040000fa
:04005000aa060000fc
:020000040000fa
:04005400aa060000f8
:020000040000fa
:04005800aa060000f4
:020000040000fa
:04005c00c8020000d6
:020000040000fa
:04006000aa060000ec
:020000040000fa
:04006400aa060000e8
:020000040000fa
:04006800aa060000e4
:020000040000fa
:04006c00aa060000e0
:020000040000fa
:04007000aa060000dc
:020000040000fa
:0400740096030000ef
:020000040000fa
:04007800aa060000d4
:020000040000fa
:04007c00aa060000d0
:020000040000fa
:04008000aa060000cc
:020000040000fa
:04008400aa060000c8
:020000040000fa
:04008800aa060000c4
:020000040000fa
:04008c00aa060000c0
:020000040000fa
:04009000aa060000bc
:020000040000fa
:04009400aa060000b8
:020000040000fa
:04009800c40500009b
:020000040000fa
:04009c00aa060000b0
:020000040000fa
:0400a000f603000063
:020000040000fa
:0400a4001005000043
:020000040000fa
:0400a800aa060000a4
:020000040000fa
:0400ac00aa060000a0
:020000040000fa
:0400b000aa0600009c
:020000040000fa
:0400b400aa06000098
:020000040000fa
:0400b800aa06000094
:020000040000fa
:0400bc00aa06000090
:020000040000fa
:0400c000aa0600008c
:020000040000fa
:0400c400aa06000088
:020000040000fa
:0400c800aa06000084
:020000040000fa
:0400cc00aa06000080
:020000040000fa
:0400d000aa0600007c
:020000040000fa
:0400d400aa06000078
:020000040000fa
:0400d800aa06000074
:020000040000fa
:0400dc00aa06000070
:020000040000fa
:0400e000aa0600006c
:020000040000fa
:0400e400980600007a
:020000040000fa
:0400e800b20500005d
:020000040000fa
:0400ec00aa06000060
:020000040000fa
:0400f000aa0600005c
:020000040000fa
:0400f400aa06000058
:020000040000fa
:0400f800aa06000054
:020000040000fa
:0400fc00aa06000050
:020000040000fa
:04010000aa0600004b
:020000040000fa
:04010400aa06000047
:020000040000fa
:04010800aa06000043
:020000040000fa
:04010c00aa0600003f
:020000040000fa
:04011000aa0600003b
:020000040000fa
:04011400aa06000037
:020000040000fa
:04011800aa06000033
:020000040000fa
:04011c00aa0600002f
:020000040000fa
:04012000aa0600002b
:020000040000fa
:04012400aa06000027
:020000040000fa
:04012800aa06000023
:020000040000fa
:04012c00aa0600001f
:020000040000fa
:04013000aa0600001b
:020000040000fa
:04013400aa06000017
:020000040000fa
:04013800aa06000013
:020000040000fa
:04013c00aa0600000f
:020000040000fa
:04014000aa0600000b
:020000040000fa
:04014400aa06000007
:020000040000fa
:04020800aa06000042
:020000040000fa
:04020c00aa0600003e
:020000040000fa
:04021000aa0600003a
:020000040000fa
:04021400aa06000036
:020000040000fa
:04021800aa06000032
:020000040000fa
:04021c00aa0600002e
:020000040000fa
:04022000aa0600002a
:020000040000fa
:04022400aa06000026
:020000040000fa
:04022800aa06000022
:020000040000fa
:04022c00aa0600001e
:020000040000fa
:04023000aa0600001a
:020000040000fa
:04023400aa06000016
:020000040000fa
:04023800aa06000012
:020000040000fa
:04023c00aa0600000e
:020000040000fa
:04024000aa0600000a
:020000040000fa
:04024400aa06000006
:020000040000fa
:04024800aa06000002
:020000040000fa
:04024c00aa060000fe
:020000040000fa
:04025000aa060000fa
:020000040000fa
:04025400aa060000f6
:020000040000fa
:04025800aa060000f2
:020000040000fa
:04025c00aa060000ee
:020000040000fa
:04026000aa060000ea
:020000040000fa
:04026400aa060000e6
:020000040000fa
:04026800aa060000e2
:020000040000fa
:04026c00aa060000de
:020000040000fa
:04027000aa060000da
:020000040000fa
:04027400aa060000d6
:020000040000fa
:04027800aa060000d2
:020000040000fa
:04027c00aa060000ce
:020000040000fa
:04028000aa060000ca
:020000040000fa
:04028400aa060000c6
:020000040000fa
:04028800aa060000c2
:020000040000fa
:04028c00aa060000be
:020000040000fa
:04029000aa060000ba
:020000040000fa
:04029400aa060000b6
:020000040000fa
:04029800aa060000b2
:020000040000fa
:04029c00aa060000ae
:020000040000fa
:0402a000aa060000aa
:020000040000fa
:0402a400aa060000a6
:020000040000fa
:0402a800aa060000a2
:020000040000fa
:0402ac00aa0600009e
:020000040000fa
:0402b000aa0600009a
:020000040000fa
:0402b400aa06000096
:020000040000fa
:0402b800aa06000092
:020000040000fa
:0402bc00aa0600008e
:020000040000fa
:0402c000aa0600008a
:020000040000fa
:0402c400aa06000086
:020000040000fa
:0402c800aa06000082
:020000040000fa
:0402cc00aa0600007e
:020000040000fa
:0402d000aa0600007a
:020000040000fa
:0402d400aa06000076
:020000040000fa
:0402d800aa06000072
:020000040000fa
:0402dc00aa0600006e
:020000040000fa
:0402e000aa0600006a
:020000040000fa
:0402e400aa06000066
:020000040000fa
:0402e800aa06000062
:020000040000fa
:0402ec00aa0600005e
:020000040000fa
:0402f000aa0600005a
:020000040000fa
:0402f400aa06000056
:020000040000fa
:0402f800aa06000052
:020000040000fa
:0402fc00aa0600004e
:020000040000fa
:04030000aa06000049
:020000040000fa
:04030400aa06000045
:020000040000fa
:04030800aa06000041
:020000040000fa
:04030c00aa0600003d
:020000040000fa
:04031000aa06000039
:020000040000fa
:04031400aa06000035
:020000040000fa
:04031800aa06000031
:020000040000fa
:04031c00aa0600002d
:020000040000fa
:04032000aa06000029
:020000040000fa
:04032400aa06000025
:020000040000fa
:04032800aa06000021
:020000040000fa
:04032c00aa0600001d
:020000040000fa
:04033000aa06000019
:020000040000fa
:04033400aa06000015
:020000040000fa
:04033800aa06000011
:020000040000fa
:04033c00aa0600000d
:020000040000fa
:04034000aa06000009
:020000040000fa
:04034400aa06000005
:020000040000fa
:100400004f8a20000e7f24000e01880000000000ab
:10041000000020000000e000020032000001200087
:1004200020028800140007004c0207000000e000d2
:1004300003003a00c05021000100200002003700f4
:100440000000200001002000810f70000100320038
:1004500014000700000020000000e000020032004d
:100460000000020000000000741302000000000001
:100470000040da000000fe004440a900a006200071
:100480000000e0000300320000002000a00188000e
:100490004440a800000006008a1f78008b1f7800e7
:1004a0000000060091018800800478000000eb0045
:1004b0001a003700e284440032a0b4009905ba0063
:1004c000e284440032a0b4009906ba00e2844400f9
:1004d00032a0b4000006eb00476fde00fd07b2005b
:1004e000636ce10003003a00ebff07000000eb0043
:1004f0000a003700606ce10004003a00005deb0088
:100500008b05e900fdff3e00040037006168e10053
:10051000010032000086eb000b00070019c7ba008b
:100520001905ba000e04e00003003a000a00e000da
:10053000e0ff3a0000000600fe07b2009e018800be
:100540008a047800f5ff3700395dba008b05e900b1
:100550000c003200295dba008b05e900080032006a
:100560000c00e00003003a00e284440032a0b40032
:10057000f5ff370019ddba008b05e900faff3a00f4
:100580008904e800e184440032a0b40000000600c1
:10059000809fbe00821f78000000fa00c0408000eb
:1005a000d140800061004000e0804800c0408800e9
:1005b000d1408800b04080000000e00056003a00c2
:1005c00040198000004078007f4060000080fb0000
:1005d000e10f500035003200e10f500003003c00f5
:1005e0000000e0002200320043003700e40f50001a
:1005f00011003200e50f50003e003a00e04080005c
:1006000001188000000140004083200000004100ec
:10061000010878004119800000fe2f000080600072
:100620000020a00040198800f04080000000e80091
:10063000f040880030003700e04080000118800062
:1006400000014000408420000000410001087800c3
:100650004119800000fe2f000080600040198800d2
:10066000f04080000000e800f040880022003700e1
:10067000e04080000118800000014000408520001b
:1006800000004100010878004119800000fe2f00a1
:10069000008060000000a00040198800f040800049
:1006a0000000e800f040880013003700e0408000c0
:1006b0000118800000014000408620000000410039
:1006c000010878004119800000fe2f0000806000c2
:1006d0005000b30040198800f04080000000e8009e
:1006e000f0408800e04080000000e800e040880022
:1006f0000100370000000000f140800000022000ef
:10070000808f500004003a0010002000b0408800a4
:100710001e28ef001c28ef0085a0a9000080fa0029
:100720004f0178004f00be0000400600809fbe00d1
:100730000000fa00a1168000000420000080600084
:100740000000e0000d003a00700980000080ea001f
:100750004f00de00004078000080fb004f00dd000d
:100760007109800001f0a10001007000700988008b
:10077000404180000000e80040418800a116800050
:1007800000002200008060000000e00009003a0044
:100790002041800000f0a7000000ea000000e9000e
:1007a0004f00de0020418800504180000000e8003a
:1007b00050418800a11680000008200000806000e1
:1007c0000000e00005003a00100020001040880002
:1007d000604180000000e800604188008660a90058
:1007e0000080fa004f00be0000400600809fbe005f
:1007f000829fbe000200fa00b0118000004f780016
:100800001e00fb006101b900d0fb2f00f1ff2f009b
:100810000200400083804800f20220000300200014
:10082000820f5000838f580066003e000060010078
:10083000310037006500370064003700630037007f
:1008400062003700610037002d0037005f0037007d
:100850005e003700520037005c0037005b00370055
:100860005a003700220037005800370035003700a3
:10087000560037005500370054003700530037004a
:100880005200370051003700500037004f0037004a
:100890004e0037004d0037004c0037004b0037004a
:1008a0004a0037004900370048003700470037004a
:1008b000110037004500370044003700430037007f
:1008c00042003700410037000d0037003f0037007d
:1008d0003e003700240037003c0037003b00370063
:1008e0003a003700020037003800370007003700b1
:1008f0002fe1a900420037002fe1a8004000370097
:1009000010002000104088003d003700204180008a
:100910000000e0002f00320060408000ea0040004c
:1009200010418000808f50002c003e00604080000d
:100930006a004000604088001000200030418800bc
:100940002f00370070408000ea0040001041800016
:10095000808f500023003e00704080006a004000fd
:100960007040880026003700204180000000e00031
:100970001e00320060408000ea005000004180000c
:10098000808f50001b003900604080006a005000da
:1009900060408800100020003041880018003700b7
:1009a00070408000ea00500000418000808f5000bd
:1009b00012003900704080006a00500070408800ca
:1009c0000f003700000000000d003700000000009d
:1009d0000b00370000000000090037000000000095
:1009e000070037000000000005003700000000008d
:1009f0000300370000000000010037000000000085
:100a00009e407800308920000148780087c0a90006
:100a10000080fa004f01be004f00be0000400600fb
:100a2000809fbe000000fa0070418000e10f50007e
:100a300016003200e10f500005003900e20f5000af
:100a400021003200e30f50002e0032004100370039
:100a500080418000c19f2800614078000000fb00b9
:100a6000a0118800804180000000e80080418800db
:100a700080418000e30f500031003a003028ef0041
:100a80001000200070418800320037008041800053
:100a900041872000614078000080fb00a0118800a1
:100aa000804180000000e800804188008041800093
:100ab000f00f500024003a003028ef002000200002
:100ac0007041880023003700804180000000e00072
:100ad00006003a00d0002000a0118800804180006c
:100ae0000000e800804188001a003700a0002000c4
:100af000a01188003028ef003000200070418800ed
:100b000014003700804180007000400041872000c1
:100b1000614078000080fb00a011880080418000c7
:100b20000000e8008041880080418000f00f500004
:100b300007003a003028ef002e28ef0005003700ac
:100b40000000000003003700000000000100370033
:100b50000000000087e0a9000080fa004f00be00fe
:100b600000400600801f78000000fa00204080004e
:100b70006a004000204088008a00a9000080fa0036
:100b80004f007800004006003600f800809fbe004d
:100b9000829fbe00849fbe00869fbe000000fa00b8
:100ba00090408000e10f50000c003200e10f500037
:100bb00005003900e20f500016003200e30f50002c
:100bc000190032002900370000c8b300da05070019
:100bd000100020009040880024003700a0408000d2
:100be0004187200061407800ee050700a0408000aa
:100bf0000000e800a0408800a0408000f00f5000f6
:100c000017003a001428ef002000200090408800d0
:100c10001600370000ccb300c705070030002000e5
:100c20009040880011003700a04080007000400014
:100c30004187200061407800da050700a04080006d
:100c40000000e800a0408800a0408000f00f5000a5
:100c500005003a001428ef001228ef0003003700c7
:100c60000000000001003700000000008780a9009c
:100c70000080fa004f03be004f02be004f01be00cd
:100c80004f00be003600f90000400600809fbe0005
:100c90000000fa0080408000e10f50000d0032009b
:100ca000e10f500003003900e20f50001500320040
:100cb0001b003700d602a800604080006008880052
:100cc00060408000004088001000200080408800c4
:100cd00013003700d602a900d622a8007040800079
:100ce000600888000040800080007800704080002c
:100cf00000804000004088002000200080408800e4
:100d000007003700d622a90000408000410d2300d3
:100d100000805000600888001028ef0000000000ec
:100d200084e0a9000080fa004f00be0000400600e9
:100d3000801f78000000fa00100020009041880019
:100d40002de1a90089e0a9000080fa004f00780099
:100d5000004006000040da000000fe000000050030
:100d600003f0a200889fbe008a9fbe008c1f7800ff
:100d7000f3000700fa0033006450e1004f00320036
:100d80006420e1005200320003826c0007003b0047
:100d90000905d0000306d000820f54000c065d0048
:100da0000200390002003200890178000306780051
:100db0008582550004003d000003fd008103fd0015
:100dc0008502ea008b854200840f720002003b001e
:100dd00060001000e08018006011b8000005eb0012
:100de0007a28e1000a00390006007800c75ddd00be
:100df000f707b200878075002d00370082817100ef
:100e00000a017800610560008180d1000080d30074
:100e10008502e900f9ff3b00060440008784480092
:100e200002003b0060041400e0841c000988a30059
:100e3000070032008a8171008281710061016400c3
:100e40008904d1000884d3008b05e800170037001f
:100e50000978a30013003a000b00e00013003400ef
:100e60008b05e9000804440089844c000a4474009e
:100e70000978a3000d003a000b00e00007003400e1
:100e80008b05e9000804440089844c0001003a0005
:100e90000b0020000978a300f7ff32000001eb00ef
:100ea00002003700828171000a01780069000700a2
:100eb0000cf0a70001f0a000b20037006420e100b0
:100ec00002003a00838f6c00b20033000801be00bc
:100ed0000200be00ab003700889fbe008a9fbe00a4
:100ee0008c1f7800960007009d00330003866c007d
:100ef0006450e1002e0032006420e1003300320033
:100f00006150e1002f0032006120e1003100320029
:100f100085855500eb07b00009002000080420007b
:100f2000050037000804440089844c000a003100a1
:100f30000603430087834b000001530081815b005f
:100f4000f8ff33000203be000800a00008044400bc
:100f500089844c00f6ff3900c639dd008301730037
:100f600001003200130020008904d1000884d3005e
:100f70000998a300050032000800a7000300a000a4
:100f80008904d1000884d3008b05e8008904d100ce
:100f90000884d3000001eb000281d2002d0007007d
:100fa00001f0a1000cf0a70001f0a00075003700cf
:100fb0006420e100770032000801be000200be009c
:100fc000f7ff37006120e100720032006000b800d6
:100fd000f3ff37000000200001f82700f0ff370082
:100fe0000001be00410007000470a70003f0a1004b
:100ff00003f8a30013003a006509b10010003200a5
:10100000090035006928e1000200350001002800d0
:101010000000050000004000818048008502e900d2
:10102000fcff3a0000000600f88f42000500350082
:101030008100d1000080d3008502e800fcff3a0067
:10104000000006008000eb00000005006011b80001
:101050008700370081002000618055000b003d00b3
:101060000b00200061fe2f000100e1001d00340094
:1010700082817100610164008904d1000884d30079
:101080000000e800faff3a007100200061006400ef
:101090000300700002006000090032006104440097
:1010a000e0844c000988a500050032008b05e800ab
:1010b0006808e10002003a008904d1000884d300e6
:1010c000f20f20000258e10005003d00c75ddd0081
:1010d000f907b2008980750008007800000006005a
:1010e0000bf827008b00780000000500c70ade001f
:1010f000f107b200f50fb20008003200e1cf420064
:10110000020032000170a00024000500810f700071
:10111000010032000408050044000500810f700042
:1011200002003a00140005008502e90000004000ba
:1011300081c04800fcff3b000170a00024000500b6
:101140000004be00e9ff07000003be000405be0066
:101150000200be00e5ff0700844f75000000060096
:101160000200be006450e100050036006420e1008a
:10117000020036000968a30001003a000800be0022
:101180000160a0004f0678004f05be004f04be006e
:1011900000000600f0ff2f00f1ff2700f9ff3700e5
:1011a000889fbe008a9fbe008c1f7800e4ff070066
:1011b000ebff330003866c006450e1002400320032
:1011c0006420e100270032006150e100220032007b
:1011d0006120e100210032008b854200eb07b10065
:1011e0000134b800003ab8000804420089844a007b
:1011f000013ab8000030b8008880400009014a0078
:1012000004003300000040008180480002014900d2
:101210008b05e900c909dd0083017000010032007f
:1012200013002000c814de004814dd004709de006a
:101230001200b200c808de000884700085ff0700b5
:1012400001f0a1000cf0a70001f0a000cdff3700d5
:101250006120e100cfff32000801be000200be00a5
:10126000f7ff37006150e100fcff3a00c9ff37008b
:10127000889fbe008a9fbe00008270000402710039
:1012800004827100260032000004be000200be008d
:101290006011b8006b092000950220000182cf0088
:1012a0000a0039000541b1000082cf000700390073
:1012b0000541b1000982cf00040039000541b100a9
:1012c0000882cf00010039000541b10005425200fb
:1012d000120032000a003b0082817100610164004b
:1012e0008100d1000080d3008984d3000884d3001a
:1012f0008b05e8000442e800f7ff3a0007003700da
:101300000804440089844c000000480081804800a3
:101310008b05e9000442e900f9ff3a004dff0700a0
:0c1320004f05be004f04be000000060098
:020000040000fa
:10132c002d20000044530000452000003230000006
:10133c00323200002d320000332000002d2d000031
:10134c00002d00002d2d000020500000756c0000b9
:10135c00736100002053000033200000202d00009a
:10136c002d0000002d2d00002d2000002049000034
:10137c00324300005f76000031200000202d000079
:10138c002d2d0000002d00002d20000053340000f6
:10139c00206300006f6d0000696500006e7a00002c
:1013ac00612d00002d000000503a0000303000008c
:1013bc00303000002064000069730000743a0000b3
:1013cc00303000003030000000430000726f00002d
:1013dc006e6f00003a200000303000003a30000000
:1013ec00302c000030200000200000001b5b0000af
:0413fc0048000000a5
:020000040000fa
:101400000000fa00b0182000201088000020210001
:101410003010880007e2a8000080fa0000000600f3
:101420000200fa000602a8000000eb00000f78009e
:10143000010037001e0fe8003010800061006000de
:101440000000e00004003200703e20009e007800a2
:10145000808f5000f7ff3600703e20009e0078001d
:10146000808f50000200360010002000010037007d
:101470000000eb000080fa00000006000200fa0005
:101480000622a8000000eb00000f780001003700e2
:101490001e0fe80030108000620060000000e000d5
:1014a00004003200703e20009e007800808f5000c3
:1014b000f7ff3600703e20009e007800808f5000bd
:1014c0000200360010002000010037000000eb0091
:1014d0000080fa00000006000200fa000642a800a0
:1014e0000000eb00000f7800010037001e0fe8003d
:1014f00030108000640060000000e0000400320052
:10150000703e20009e007800808f5000f7ff36006c
:10151000703e20009e007800808f50000200360050
:1015200010002000010037000000eb000080fa00ee
:10153000000006000200fa000000eb00000f780037
:10154000010037001e0fe800411080000000240059
:10155000008060000000e00004003200703e2000c7
:101560009e007800808f5000f6ff3600703e20000d
:101570009e007800808f500002003600100020008e
:10158000010037000000eb000080fa0000000600b8
:101590000400fa00204798002e4090000080fb00d5
:1015a000101088000000eb00000f780001003700e9
:1015b0001e0fe80040108000610060000000e000a5
:1015c00004003200703e20009e007800808f5000a2
:1015d000f7ff3600703e20009e007800808f50009c
:1015e0000200360010002000010037000000eb0070
:1015f0000080fa00000006000400fa0010079800be
:101600000000eb00000f7800010037001e0fe8001b
:101610004110800000002400008060000000e00015
:1016200004003200703e20009e007800808f500041
:10163000f6ff3600703e20009e007800808f50003c
:101640000200360010002000070037004010800024
:101650004f00de00004078008080fb001e009000fc
:10166000010878000000eb000080fa00000006008e
:101670000200fa0006a2a8000682a8000000eb0003
:10168000000f7800010037001e0fe80030108000c6
:10169000700060000000e00004003200703e200096
:1016a0009e007800808f5000f7ff3600703e2000cb
:1016b0009e007800808f500002003600100020004d
:1016c000010037000000eb000080fa000000060077
:1016d0000200fa0006a2a9000682a8000000eb00a2
:1016e000000f7800010037001e0fe8003010800066
:1016f000700060000000e00004003200703e200036
:101700009e007800808f5000f7ff3600703e20006a
:101710009e007800808f50000200360010002000ec
:10172000010037000000eb000080fa000000060016
:101730000400fa00100798000662a8000000eb0001
:10174000000f7800010037001e0fe80040108000f5
:101750006200600000f0a7000000ea000000e9005d
:101760004f00de008040780010c0b300723e2000c1
:101770009e017800828f5100010034000040eb0090
:1017800000c060000004e000efff3a00703e20005f
:101790009e007800808f500002003400100020006e
:1017a0000500370000108000804078001e00900087
:1017b000014878000000eb000080fa0000000600fd
:1017c0000400fa00000f7800214798000f0037004e
:1017d0001e007800d6ff07000000e0000200320083
:1017e00010002000140037001e0fe8002e4090006b
:1017f0000004e00005003200b5ff07000000e00033
:1018000002003200200020000b0037002e40900024
:101810000080fb000000ea004f00de00004078007e
:10182000ae4090008140e900214798000004e000ac
:10183000e7ff3a000000eb000080fa00000006001d
:101840000800fa00204798003147980022079800c6
:101850006347980037ff07000000e00002003200f5
:101860001000200041003700edfe07000000e000fe
:1018700002003200200020003c0037002e40900083
:1018800043ff07000000e0000200320030002000ab
:10189000360037000e00780057ff07000000e00018
:1018a0000200320040002000300037003e4090002f
:1018b00037ff07000000e000020032003000200087
:1018c0002a0037000e0078004bff07000000e00000
:1018d000020032004000200024003700e7fe07002d
:1018e0000000e00002003200600020001f0037000e
:1018f0002e4090000004a00025ff07000000e0003b
:101900000200320030002000180037000e0078007e
:1019100039ff07000000e000020032004000200014
:1019200012003700ee4090002e009000a4ff070048
:101930000000e00002003200700020000b003700c1
:101940004bff07000000e000020032008000200092
:1019500006003700e0fe07000000e0000200320051
:1019600050002000010037000000eb000080fa006a
:10197000000006000600fa00204798003147980052
:1019800042479800ebfe07000000e0000200320032
:10199000100020002f003700a1fe07000000e0002b
:1019a00002003200200020002a0037002e40900064
:1019b000f7fe07000000e0000200320030002000c7
:1019c000240037000e0078000bff07000000e00045
:1019d00002003200400020001e0037003e40900010
:1019e000ebfe07000000e0000200320030002000a3
:1019f000180037000e007800fffe07000000e0002e
:101a00000200320040002000120037004e409000db
:101a1000dffe07000000e00002003200300020007e
:101a20000c0037000e007800f3fe07000000e00015
:101a3000020032004000200006003700a6fe07002a
:101a40000000e000020032005000200001003700da
:101a50000000eb000080fa00000006000400fa001d
:101a6000008fbe003421ef00e0ff2f0001002000b6
:101a70001e01be00800f5100818f590008003e00fa
:101a8000e1098000f0fc2f0000806000e009880080
:101a90001e0078000000e900c00988003a00370005
:101aa00070ff2f00710020001e01be00800f51004a
:101ab000818f59000e003e00e1098000f0fc2f00ec
:101ac000008060000040a000e00988001e00be0009
:101ad0004d09dd004300de0000007100c308de0098
:101ae000000078000000e900c009880026003700e7
:101af000f0fb2f00f10320001e01be00800f5100fb
:101b0000818f59000e003e00e1098000f0fc2f009b
:101b1000008060000050a000e00988001e00be00a8
:101b20004a09dd004600de0000007100c608de0044
:101b3000000078000000e900c009880012003700aa
:101b4000f0ef2f00f10f20001e01be00800f5100aa
:101b5000818f59000c003e00e10980000003200045
:101b600001007000e00988001e00be004809dd0089
:101b70004800de0000007100c808de0000007800a8
:101b80000000e900c00988003c21a9003cc1a9006f
:101b90008a80a9003de1a8000080fa00000006004c
:101ba0000600fa00200798002e0090008000eb004d
:101bb00002c429000289b900020178006002b9005c
:101bc000840178000301410003c429000300b80028
:101bd0000101410082007800008fbe00008fbe002e
:101be000f0ef2f00f10f20001e01be00800f51000a
:101bf000818f59000b003e001e00be0097ff0700ba
:101c00000000000050048000700060000000e00050
:101c1000fcff32008a80a9003de1a9000080fa00a3
:101c200000000600201680007000600000f0a70091
:101c30000000ea000000e9004f00de0000407800ec
:101c40000080fb00610060004400dd002116800080
:101c50000140a1000100700020168800ffff37003e
:101c60000600fa00200798002e0090008000eb008c
:101c7000820220000289b900020178006002b900e6
:101c80008401780003014100830220000300b800b2
:101c90000101410082007800008fbe00008fbe006d
:101ca000f0ef2f00f10f20001e01be00800f510049
:101cb000818f59000b003e001e00be0067ff070029
:101cc0000000000050048000700060000000e00090
:101cd000fcff32008a80a9003de1a9000080fa00e3
:101ce0000000060021168000000220000080600035
:101cf00000f0a7000000ea000000e9004f00de004d
:101d0000004078000080fb00610060004500dd00bd
:101d1000211680000150a1000100700020168800eb
:101d2000ffff37000000fa002621ef00f0342c00fe
:101d30005009880071098000f0fc2f0000806000cd
:101d40000040a000700988002e21a9002ec1a90022
:101d50009a00a8008a00a9002fe1a8000080fa00dc
:101d6000000006000000fa000428ef000628ef003b
:101d70000828ef000a28ef000080fa0000000600a3
:101d80000000fa00104080000000e0001500320062
:101d9000f4ff07002116800000f02f000080600093
:101da00020168800514080004087200077004000c6
:101db000e301070041408000408720007a00400096
:101dc000df01070031408000408720007d00400097
:101dd000db0107002089200001c2b3000148780020
:101de0000228ef002140800030062000808f500044
:101df00058003600304080000000e8003040880085
:101e0000204080004006b10020408800201680005d
:101e10006100600000f0a7000000ea000000e90097
:101e20004f00de00004078000080fb006100600091
:101e3000211680000100a10001007000201688001a
:101e400030408000e90f50003900360000000000eb
:101e5000000000001828ef001a28ef004040800022
:101e60000000e80040408800304080006a005000d8
:101e700030408800201680006400600000f0a70059
:101e80000000ea000000e9004f00de00004078009a
:101e90000080fb00610060004200dd002116800030
:101ea0000120a10001007000201688004140800040
:101eb000b0032000808f5000190036005040800091
:101ec0000000e8005040880040408000c003b1009e
:101ed000404088002116800000042000008060003f
:101ee00000f0a7000000ea000000e9004f00de005b
:101ef000004078000080fb00610060004600dd00cb
:101f0000211680000160a1000100700020168800e9
:101f10005140800040872000770040008801070082
:101f200041408000408720007a0040008401070083
:101f3000304080006a00b9008000780040872000af
:101f40007d0040007e0107002089200001c2b3000f
:101f5000014878000080fa00000006000000fa0046
:101f60001821ef00300d2300e008880001098000ef
:101f7000f0fc2f00008060000040a00000098800f5
:101f80002021a90020c1a9009780a8008780a9006e
:101f900021e1a8000080fa00000006000000fa001d
:101fa0000a21ef00f0c32900700888009108800022
:101fb000f0fc2f0000806000900888001221a9002a
:101fc00012c1a9009500a9008500a90013e1a8008d
:101fd0000080fa00000006000000fa000621ef0071
:101fe000300d23006008880081088000f0fc2f007d
:101ff000008060000050a000800888001021a90027
:1020000010c1a90094e0a80084e0a90011e1a80093
:102010000080fa00000006000000fa002221ef0014
:1020200000eb29004009880061098000f0fc2f00c6
:10203000008060000050a000600988002c21a900e9
:102040002cc1a90099e0a80089e0a9002de1a80011
:102050000080fa00000006000000fa002221ef00d4
:102060002de1a8000080fa00000006000000fa0040
:102070002023ef0001198000f0f12f0000806000a4
:102080000060a000001988002043a8002223ef0070
:102090002423ef002119800000f0210001007000ce
:1020a0002019880030c0b30024e3b7003223ef00ca
:1020b0002623ef002823ef004119800000fe2f00a7
:1020c000008060005000b300401988002e23ef000c
:1020d0003023ef000080eb00501988000080eb00f7
:1020e000601988002ca3a9002c83a9002c03a90047
:1020f0002c23a90085a0a90095a0a80021e3a80091
:102100000080fa00000006000000fa002023a8006a
:102110000080fa00000006001200fa00889fbe004e
:102120006000b800008fbe006000b8002007980073
:10213000310798006000b8004007980051079800e8
:102140006000b80060079800710798000000eb007d
:10215000000f9800350037000e0890008000400006
:102160004083200000804000100078008000eb00d9
:10217000b6fb07000001be001e00be00f9fa070012
:10218000008fbe000e0890008000400040842000b8
:1021900000804000100078008000eb00abfb0700df
:1021a0000001be002e009000be009000edfa070076
:1021b00020079800310798000e089000800040002a
:1021c0004085200000804000100078008000eb0077
:1021d0009efb07000001be004e009000de00900054
:1021e000e0fa070040079800510798000e08900099
:1021f00080004000408620000080400010007800f1
:102200008000eb0091fb07000001be006e00900013
:10221000fe009000d3fa070060079800710798004d
:102220000e0890000000e800000f98000e089000d3
:10223000e70f5000c8ff3400020020000310240004
:102240001e00be0024fb0700008fbe00020020001d
:10225000031024002e009000be0090001efb07001b
:102260002007980031079800020020000310240086
:102270004e009000de00900017fb0700400798001a
:102280005107980002002000031024006e00900007
:10229000fe00900010fb070060079800710798008f
:1022a000204180000000e00019003a0002002c00ec
:1022b000f34724001e00be0007fb07000004be0019
:1022c0001141800000418000008050008000eb0040
:1022d0005efb07000001be000800be00b0fb070067
:1022e0000004be00004180008000eb0057fb0700a7
:1022f0000001be000800be009afa070038fb070084
:102300000000780060408800100020003041880004
:102310001e00be0032fb07008000780040872000ce
:102320000080e800aa0007001628ef004f04be0056
:102330000080fa00000006000200fa00004f78005a
:10234000d6a2a900cbe2a900e116800000f02f0080
:1023500000806000e01688009e00fb00e016800010
:1023600001007000e0168800d682a800000000007e
:10237000000000000000000000000000000000005d
:10238000000000000000000000000000000000004d
:1023900000000000d682a900d6a2a8000080fa00a2
:1023a000000006000200fa00004f7800d6a2a90043
:1023b000cbe2a800e116800000f02f000080600052
:1023c000e01688009e00fb00e0168000010070000f
:1023d000e0168800d682a80000000000000000007f
:1023e00000000000000000000000000000000000ed
:1023f00000000000000000000000000000000000dd
:10240000d682a900cbe2a900d6a2a8000080fa00db
:10241000000006000000fa00f0002000e0fd0700c8
:10242000e116800000f02f0000806000e0168800b8
:10243000d6a2a900cbe2a900d682a900c1168000cd
:1024400000f02f0000806000c0168800d2a2a90012
:10245000c7e2a900d282a90080c3b300b6ff07007b
:1024600050002000cefd070080c3b300b2ff07007c
:1024700040062000fafd070080c3b300aeff07004e
:1024800080022000f6fd070080c3b300aaff07000a
:1024900080022000f2fd0700c0c0b300a6ff0700c5
:1024a00080022000eefd070060c0b300a2ff07001d
:1024b00080022000eafd07000080fa00000006000c
:1024c0000400fa00000f7800214798000900370047
:1024d0001e007800104078001e0fe800b1ff0700d2
:1024e00080022000defd07002e4090000040e90041
:1024f000204798002e4090000004e000f4ff3a00ce
:102500000080fa00000006000000fa0000c8b300d6
:1025100089ff070080022000d1fd07000080fa003b
:10252000000006000000fa0000ccb30082ff0700a4
:1025300080022000cafd07000080fa0000000600ab
:102540000600fa001007980021079800ae009000de
:1025500030062000808f500001003600ffff37005a
:10256000ae009000d0cc2c000008b8004308de007c
:10257000004f78001e80fb0041892000614f7800e9
:102580001e0090001e4878001e0090000000e80029
:10259000100798002e019000d0cc2c000010b8003d
:1025a0004308de006a00b900000078000000510016
:1025b000004f78001e80fb0041892000614f7800a9
:1025c0001e0090001e4878000080fa0000000600ff
:1025d0000a00fa003007980041079800803e20006a
:1025e00020079800ce009000f0702200808f5000ed
:1025f00001003600ffff3700ce009000010f780089
:102600000000eb0010079800230037002e00900018
:102610009e00780000017800110009008280d80037
:10262000000f7800408920001e0040001040780014
:102630000080fb00000f78001e00780080407800ca
:102640003e009000014878003e0090000000e80045
:10265000300798002e009000ce0090000001780016
:10266000110009008280d8008000fd00000f780072
:102670002e019000706626000090b900c288de002e
:102680004f90de0000805000200798001e00900050
:102690000000e800100798001e009000e20f5000b4
:1026a000daff34002e0090009e00780000017800d0
:1026b000110009008280d800000f780040892000b6
:1026c0001e004000104078000080fb00000f7800e2
:1026d0001e007800804078003e009000014878009d
:1026e0000080fa00000006000000fa00a1000700c8
:1026f00048ff07001a0107008000eb0060992800de
:102700000201070011002000709a2800ff00070056
:102710007dff07004087200001c1b30068ff07006c
:1027200080ff0700408720007000400001c1b30017
:1027300063ff070000000000a116800000042000d5
:10274000008060000000e000fbff3a008000eb002a
:10275000809b2800ed00070011002000909c2800bd
:10276000ea00070068ff07004087200001c1b300ae
:1027700053ff07006bff07004087200070004000f8
:1027800001c1b3004eff070000000000a116800049
:1027900000002200008060000000e000fbff3a0023
:1027a0008000eb00a09d2800d80007001100200049
:1027b000b09e2800d500070053ff07004087200087
:1027c00001c1b3003eff070056ff0700408720000d
:1027d0007000400001c1b30039ff070061fd070030
:1027e00004010700e60007004efd0700ef000700a8
:1027f000a0052000a01188001cfe0700b300070000
:10280000f5fd070020ceb3003800070002fe0700e8
:10281000d2fd0700e1fd07000100370000000000c5
:1028200057fd0700b04080000000e00001003200ca
:1028300039fe0700304180000000e0000100320056
:102840009a000700904180000000e000f3ff320092
:1028500020ceb30001000700f1ff37000600fa00a8
:10286000404798000e80e8008000780020ceb3003a
:102870002b0007000000e00002003200c422a80084
:10288000ffff37002e4090000080fb004800dd0075
:102890000000e00003003a003e4090000004e00029
:1028a0000200320010002000010037000000eb00a1
:1028b000000f7800408720006c0040009e007800e8
:1028c00043ff070020ceb300080007000000e0002f
:1028d00002003200c462a800ffff3700defd0700df
:1028e0003228ef000080fa00000006000200fa0023
:1028f000004f780012c5b3008040eb0020ceb3003b
:102900001cfc07000000e000020032001000200064
:10291000010037000000eb000080fa000000060014
:102920000400fa00004f78001107980023c0b3009c
:102930001e01900021c0b30020ceb300c0fb0700f1
:102940000000eb000080fa00000006000200fa0020
:10295000004f7800114798000080fa000000060040
:102960000200fa00000f78000000eb000080fa007f
:10297000000006000000fa0060022000303a8800e3
:10298000213a8000f0f32f0000806000203a880098
:10299000213a800000fe2f0000806000203a88006d
:1029a00040a7a9003200200080072000a1092000d4
:1029b000337420008049780081497800824978008a
:1029c0001200200060042000710520002374200004
:1029d0008049780081497800824978000000000031
:1029e000113a800000002700808060000000230072
:1029f000808f5000faff3a0000000000113a80007a
:102a000000022000008060000000e000fbff3200b8
:082a10000080fa00000006003e
:020000040000fa
:102a18003408000040000000000000001608000014
:102a28000a0000000000000028080000060000005e
:102a3800000000002008000008000000020000005c
:102a48003801200005010000010000002e080000e8
:102a580004000000000000007408000020000000ce
:102a68000000000032080000020000000000000022
:102a78000008000016000000000000009408000094
:102a880010000000020000003031320033343500fd
:102a98003637380039000000000000000000000050
:042aa800000000002a
:020000040000fa
:102aac000000fa0061408000408720006c0040006c
:102abc00c4fe07002628ef000080fa000000060084
:102acc000000fa001028ef00114180000041800046
:102adc00008040000000d10060408800114180005f
:102aec0000418000008040000000d1007040880050
:102afc00d202a900d222a9000080fa000000060030
:102b0c000600fa0010079800210798000000eb005f
:102b1c00000f78000a0037001e0090001e004000d5
:102b2c00904078002e009000428720004400dd0089
:102b3c001e00400000004100014878001e0fe80014
:102b4c001e007800ef0f5000f3ff36000080fa00f3
:102b5c00000006000000fa000080eb00501988000d
:102b6c00d2c2a800d3a2a800d2e2a8000080fa002a
:102b7c00000006000000fa0000f02f00001688008c
:102b8c0000000000000000002116800000f02f0063
:102b9c0000806000201688000080fa00000006000b
:102bac000000fa0020822000c01188003022ef00c3
:102bbc003062a8003222ef0087c0a90087e0a9008c
:102bcc0097c0a80097e0a8009c40a9003222a90059
:102bdc0031e2a8003342a800100d20001dfc0700b4
:102bec000080fa00000006000000fa0061e0a80076
:102bfc006260a8006200a8009660a8008660a90028
:082c0c000080fa000000060040
:020000040000fa
:0200000401f009
:04000c00fbff0000f6
:020000040000fa
:0200000401f009
:040010007dff000070
:020000040000fa
:0200000401f009
:040014007fff00006a
:00000001FF
