:020000040000fa
:080000000002040000000000f2
:020000040000fa
:0400080034030000bd
:020000040000fa
:04000c0034030000b9
:020000040000fa
:0400100034030000b5
:020000040000fa
:0400140034030000b1
:020000040000fa
:0400180034030000ad
:020000040000fa
:04001c0034030000a9
:020000040000fa
:0400200034030000a5
:020000040000fa
:0400240034030000a1
:020000040000fa
:04002800340300009d
:020000040000fa
:04002c003403000099
:020000040000fa
:040030003403000095
:020000040000fa
:040034003403000091
:020000040000fa
:04003800340300008d
:020000040000fa
:04003c003403000089
:020000040000fa
:040040003403000085
:020000040000fa
:040044003403000081
:020000040000fa
:04004800340300007d
:020000040000fa
:04004c003403000079
:020000040000fa
:040050003403000075
:020000040000fa
:040054003403000071
:020000040000fa
:04005800340300006d
:020000040000fa
:04005c003403000069
:020000040000fa
:040060003403000065
:020000040000fa
:040064003403000061
:020000040000fa
:04006800340300005d
:020000040000fa
:04006c003403000059
:020000040000fa
:040070003403000055
:020000040000fa
:04007400c8020000be
:020000040000fa
:04007800340300004d
:020000040000fa
:04007c003403000049
:020000040000fa
:040080003403000045
:020000040000fa
:040084003403000041
:020000040000fa
:04008800340300003d
:020000040000fa
:04008c003403000039
:020000040000fa
:040090003403000035
:020000040000fa
:040094003403000031
:020000040000fa
:04009800340300002d
:020000040000fa
:04009c003403000029
:020000040000fa
:0400a0003403000025
:020000040000fa
:0400a4003403000021
:020000040000fa
:0400a800340300001d
:020000040000fa
:0400ac003403000019
:020000040000fa
:0400b0003403000015
:020000040000fa
:0400b4003403000011
:020000040000fa
:0400b800340300000d
:020000040000fa
:0400bc003403000009
:020000040000fa
:0400c0003403000005
:020000040000fa
:0400c4003403000001
:020000040000fa
:0400c80034030000fd
:020000040000fa
:0400cc0034030000f9
:020000040000fa
:0400d00034030000f5
:020000040000fa
:0400d40034030000f1
:020000040000fa
:0400d80034030000ed
:020000040000fa
:0400dc0034030000e9
:020000040000fa
:0400e00034030000e5
:020000040000fa
:0400e40034030000e1
:020000040000fa
:0400e80022030000ef
:020000040000fa
:0400ec0034030000d9
:020000040000fa
:0400f00034030000d5
:020000040000fa
:0400f40034030000d1
:020000040000fa
:0400f80034030000cd
:020000040000fa
:0400fc0034030000c9
:020000040000fa
:0401000034030000c4
:020000040000fa
:0401040034030000c0
:020000040000fa
:0401080034030000bc
:020000040000fa
:04010c0034030000b8
:020000040000fa
:0401100034030000b4
:020000040000fa
:0401140034030000b0
:020000040000fa
:0401180034030000ac
:020000040000fa
:04011c0034030000a8
:020000040000fa
:0401200034030000a4
:020000040000fa
:0401240034030000a0
:020000040000fa
:04012800340300009c
:020000040000fa
:04012c003403000098
:020000040000fa
:040130003403000094
:020000040000fa
:040134003403000090
:020000040000fa
:04013800340300008c
:020000040000fa
:04013c003403000088
:020000040000fa
:040140003403000084
:020000040000fa
:040144003403000080
:020000040000fa
:0402080034030000bb
:020000040000fa
:04020c0034030000b7
:020000040000fa
:0402100034030000b3
:020000040000fa
:0402140034030000af
:020000040000fa
:0402180034030000ab
:020000040000fa
:04021c0034030000a7
:020000040000fa
:0402200034030000a3
:020000040000fa
:04022400340300009f
:020000040000fa
:04022800340300009b
:020000040000fa
:04022c003403000097
:020000040000fa
:040230003403000093
:020000040000fa
:04023400340300008f
:020000040000fa
:04023800340300008b
:020000040000fa
:04023c003403000087
:020000040000fa
:040240003403000083
:020000040000fa
:04024400340300007f
:020000040000fa
:04024800340300007b
:020000040000fa
:04024c003403000077
:020000040000fa
:040250003403000073
:020000040000fa
:04025400340300006f
:020000040000fa
:04025800340300006b
:020000040000fa
:04025c003403000067
:020000040000fa
:040260003403000063
:020000040000fa
:04026400340300005f
:020000040000fa
:04026800340300005b
:020000040000fa
:04026c003403000057
:020000040000fa
:040270003403000053
:020000040000fa
:04027400340300004f
:020000040000fa
:04027800340300004b
:020000040000fa
:04027c003403000047
:020000040000fa
:040280003403000043
:020000040000fa
:04028400340300003f
:020000040000fa
:04028800340300003b
:020000040000fa
:04028c003403000037
:020000040000fa
:040290003403000033
:020000040000fa
:04029400340300002f
:020000040000fa
:04029800340300002b
:020000040000fa
:04029c003403000027
:020000040000fa
:0402a0003403000023
:020000040000fa
:0402a400340300001f
:020000040000fa
:0402a800340300001b
:020000040000fa
:0402ac003403000017
:020000040000fa
:0402b0003403000013
:020000040000fa
:0402b400340300000f
:020000040000fa
:0402b800340300000b
:020000040000fa
:0402bc003403000007
:020000040000fa
:0402c0003403000003
:020000040000fa
:0402c40034030000ff
:020000040000fa
:0402c80034030000fb
:020000040000fa
:0402cc0034030000f7
:020000040000fa
:0402d00034030000f3
:020000040000fa
:0402d40034030000ef
:020000040000fa
:0402d80034030000eb
:020000040000fa
:0402dc0034030000e7
:020000040000fa
:0402e00034030000e3
:020000040000fa
:0402e40034030000df
:020000040000fa
:0402e80034030000db
:020000040000fa
:0402ec0034030000d7
:020000040000fa
:0402f00034030000d3
:020000040000fa
:0402f40034030000cf
:020000040000fa
:0402f80034030000cb
:020000040000fa
:0402fc0034030000c7
:020000040000fa
:0403000034030000c2
:020000040000fa
:0403040034030000be
:020000040000fa
:0403080034030000ba
:020000040000fa
:04030c0034030000b6
:020000040000fa
:0403100034030000b2
:020000040000fa
:0403140034030000ae
:020000040000fa
:0403180034030000aa
:020000040000fa
:04031c0034030000a6
:020000040000fa
:0403200034030000a2
:020000040000fa
:04032400340300009e
:020000040000fa
:04032800340300009a
:020000040000fa
:04032c003403000096
:020000040000fa
:040330003403000092
:020000040000fa
:04033400340300008e
:020000040000fa
:04033800340300008a
:020000040000fa
:04033c003403000086
:020000040000fa
:040340003403000082
:020000040000fa
:04034400340300007e
:020000040000fa
:10040000ef8020000e7f24000e0188000000000015
:10041000000020000000e000020032000001200087
:100420002002880014000700910007000000e0008f
:1004300003003a0040532000010020000200370072
:100440000000200001002000810f70000100320038
:1004500014000700000020000000e000020032004d
:100460000000020000000000d004020000000000b4
:100470000040da000000fe004440a9000000200017
:100480000000e0000300320000002000a00188000e
:100490004440a800000006008a1f78008b1f7800e7
:1004a0000000060091018800800478000000eb0045
:1004b0001a003700e284440032a0b4009905ba0063
:1004c000e284440032a0b4009906ba00e2844400f9
:1004d00032a0b4000006eb00476fde00fd07b2005b
:1004e000636ce10003003a00ebff07000000eb0043
:1004f0000a003700606ce10004003a00005deb0088
:100500008b05e900fdff3e00040037006168e10053
:10051000010032000086eb000b00070019c7ba008b
:100520001905ba000e04e00003003a000a00e000da
:10053000e0ff3a0000000600fe07b2009e018800be
:100540008a047800f5ff3700395dba008b05e900b1
:100550000c003200295dba008b05e900080032006a
:100560000c00e00003003a00e284440032a0b40032
:10057000f5ff370019ddba008b05e900faff3a00f4
:100580008904e800e184440032a0b40000000600c1
:100590003600f800809fbe00829fbe00849fbe0090
:1005a000869fbe000000fa0011168000000820009f
:1005b000008060000000e0000d003a00700980003b
:1005c0000080ea004f00de00004078000080fb0061
:1005d0004f00dd007109800001f0a10001007000f2
:1005e00070098800504080000000e80050408800fa
:1005f000a116800000082000008060000000e000dc
:1006000008003a002b0007002116800000f02f00a0
:100610000080600020168800604080000000e80034
:10062000604088008660a9000080fa004f03be0089
:100630004f02be004f01be004f00be003600f90061
:1006400000400600801f78000000fa000040800093
:100650006a004000004088008a00a9000080fa007b
:100660004f007800004006000040da000000fe0065
:040670000000050081
:020000040000fa
:100674000000fa002621ef00f0342c005009880015
:1006840071098000f0fc2f00008060000040a00091
:10069400700988002e21a9002ec1a9009a00a80083
:1006a4008a00a9002fe1a8000080fa0000000600db
:1006b4000000fa000028ef000228ef000428ef00f1
:1006c4000628ef000828ef000080fa00000006006a
:1006d4000000fa000140800040062000808f500096
:1006e40051003a00104080000000e80010408800eb
:1006f4000028ef00201680006100600000f0a700d1
:100704000000ea000000e9004f00de00004078002d
:100714000080fb0061006000211680000100a10040
:10072400010070002016880010408000ea0f50007d
:100734003d003a00204080000000e800204088008e
:100744000228ef00201680006400600000f0a7007b
:100754000000ea000000e9004f00de0000407800dd
:100764000080fb00610060004200dd002116800073
:100774000120a100010070002016880020408000a4
:10078400ea0f500028003a00304080000000e800e2
:10079400304088000428ef002016800070006000bc
:1007a40000f0a7000000ea000000e9004f00de00ae
:1007b400004078000080fb00610060004400dd0020
:1007c400211680000140a10001007000201688005d
:1007d40030408000e60f500013003a004040800093
:1007e4000000e800404088000628ef002116800041
:1007f400000420000080600000f0a7000000ea0070
:100804000000e9004f00de00004078000080fb009b
:10081400610060004600dd00211680000160a10037
:1008240001007000201688000080fa000000060015
:100834000200fa00000f7800e1098000f0fc2f00ac
:1008440000806000e00988001e00e900c0098800fb
:100854003c21a9003cc1a9008a80a9003de1a8006f
:100864000080fa00000006000400fa001007980057
:100874009e00900000c429000088b90000007800a0
:10088400000f78001e007800e9ff07000000000058
:1008940050048000700060000000e000fcff3200a3
:1008a4008a80a9003de1a9000080fa00000006004a
:1008b4000400fa00100798009e00900000a0250094
:1008c4000088b90000007800000f78001e0078004e
:1008d400d7ff070000000000500480007000600093
:1008e4000000e000fcff32008a80a9003de1a9007d
:1008f4000080fa00000006000000fa0060022000f8
:10090400303a8800213a8000f0f32f000080600024
:10091400203a8800213a800000fe2f000080600009
:10092400203a880040a7a900320020008007200058
:10093400a10920003374200080497800814978009f
:100944008249780012002000600420007105200014
:100954002374200080497800814978008249780016
:1009640000000000113a8000000027008080600031
:1009740000002300808f5000faff3a0000000000be
:10098400113a800000022000008060000000e000b6
:10099400fbff32000080fa00000006000000fa00ad
:1009a400d5ff07001d0007001400070040ff0700e3
:1009b40000000000a11680000000220000806000fa
:1009c4000000e000fbff3a0029ff07001e000700bb
:1009d4000000000000000000803e2000a2ff07008d
:1009e4000000000000000000803e2000b0ff07006f
:1009f4000000eb000080fa00000006000000fa008e
:100a04000080eb0050198800d2e2a800c0e2a800e0
:100a1400d3a2a8000080fa00000006000000fa003b
:100a240000f02f0000168800000000000000000005
:100a34002116800000f02f0000806000201688003e
:100a44000080fa00000006000000fa0062e0a8003e
:100a54006200a8009660a8008660a9000080fa00e1
:040a64000000060088
:020000040000fa
:100a68000a08000004000000000000000008000060
:0c0a78000a000000000000000000000068
:020000040000fa
:0200000401f009
:04000c00fbff0000f6
:020000040000fa
:0200000401f009
:040010007dff000070
:020000040000fa
:0200000401f009
:040014007fff00006a
:00000001FF
